:020000040800F2
:100000000827002055460008FD050008FF050008E8
:1000100003060008070600080B06000800000000A1
:100020000000000000000000000000000F060008B3
:1000300011060008000000000F770008113D0008BD
:100040006F4600086F4600086F4600086F460008BC
:100050006F4600086F4600086F4600086F460008AC
:100060006F4600086F4600086F4600086F4600089C
:100070006F4600086F4600086F4600086F4600088C
:100080006F4600086F4600086F4600086F4600087C
:100090006F4600086F4600086F4600086F4600086C
:1000A0006F4600086F4600086F4600086F4600085C
:1000B0006F4600086F4600086F4600086F4600084C
:1000C0006F4600086F4600086F4600086F4600083C
:1000D0006F4600082F3E0008153F00088B3F0008C0
:1000E0006F4600086F4600086F4600086F4600081C
:1000F0006F4600086F4600086F4600086F4600080C
:100100006F4600086F4600086F4600086F460008FB
:1001100039400008E74000086F4600086F460008B5
:100120006F4600086F4600086F4600086F460008DB
:1001300000F002F800F042F80AA090E8000C8244B7
:100140008344AAF10107DA4501D100F037F8AFF294
:10015000090EBAE80F0013F0010F18BFFB1A43F0A5
:1001600001031847408A0000608A0000103A24BF4B
:1001700078C878C1FAD8520724BF30C830C144BF0C
:1001800004680C607047000000230024002500264E
:10019000103A28BF78C1FBD8520728BF30C148BFEA
:1001A0000B607047642907F0A783732907F0A684C2
:1001B000002070471FB51FBD10B510BD07F0D0FC63
:1001C0001146FFF7F7FF00F07EF807F0EEFC03B4EE
:1001D000FFF7F2FF03BC03F01BFE0000002468A041
:1001E00007F020FB0FE0642003F0E3FD1CB1214683
:1001F00066A007F017FB6848006808B9012000E016
:10020000002065490860EEE710B5044603F084FB62
:1002100010BD10B5044603F0D3FA10BD10B5044666
:1002200003F0CAF910BD10B5044602F0CAF910BDBA
:100230000EE000F0CAFAC82003F0BBFD5648001FCC
:10024000006808B9012000E000205349091F086038
:10025000EFE770B50446002500BF05F09BFC07F0F2
:100260002FFA054602234D4A0021AFF23B0006F06B
:1002700007FE07234A4A0021AFF2550006F000FEB0
:100280000623484A0021AFF26B0006F0F9FD08236F
:10029000454A0021AFF2850006F0F2FD0923434AEA
:1002A0000021AFF29B0006F0EBFD1323404A002132
:1002B000AFF2D70006F0E4FD142007F061F82846FD
:1002C00007F002FA70BD08B503F02AFD03F09AFDAD
:1002D0004FF4E130034602460146009003F05AFF16
:1002E00000F0A2FA00F071FA01F0E6FA00F010FE58
:1002F00000F0B9FD00F069FA2EA130A007F092FAE3
:1003000005F00BFB1423364A0021AFF2B90006F0CA
:10031000B7FD05F027FC002008BD9CB02E2110A8D9
:1003200007F056FB2F4800680F90342102A807F011
:100330004FFB00BF002001902BA007F073FA0421AF
:100340000FA802F0A2F910E001A902A802F0B0F98A
:100350009DF8040030B19DF8041002A802F095F950
:1003600000200190642003F024FDEDE728A007F0B1
:1003700059FA00BFFEE710B5044603F0D3FB10BDE9
:10038000544553545F7461736B0D0A006B203D201C
:1003900025640D0A0000000098812242801200208E
:1003A000800D0020800F00208009002080070020A1
:1003B00080020020322E302E340000005B44454283
:1003C00055475D2D3E284D293A536F66747761720B
:1003D000652056657273696F6E3A25730D0A0000C9
:1003E0008001002030870008574946495F52533446
:1003F00038355F7461736B3A7769666920BACD20CE
:10040000525334383520CDB8B4AB0D0A000000008B
:100410004B45595F7461736B0D0A00000CB50020E9
:10042000019000906C48006840F480306A49086090
:1004300000BF6948006800F4003000900198401C3B
:100440000190009818B90198B0F5A06FF1D16248F9
:10045000006800F4003010B10120009001E000209D
:1004600000900098012843D15C48006840F01000DB
:100470005A4908600846006820F0030008600846F2
:10048000006840F0020008605348406852494860E4
:100490000846406848600846406840F4806048600C
:1004A0000846406820F47C1048600846406840F4E4
:1004B000E81048600846006840F08070086000BF9F
:1004C0004548006800F000700028F9D042484068B4
:1004D00020F00300404948600846406840F00200B0
:1004E000486000BF3C48406800F00C000828F9D183
:1004F0000CBD10B5FFF792FF10BD10B5364800686F
:1005000040F001003449086008464068344908401A
:100510003149486008460068324908402E49086061
:100520000846006820F4802008600846406820F4EF
:10053000FE0048604FF41F008860FFF7DAFF4FF0BD
:1005400000602949086010BD10B50021002000227C
:10055000214B5B6803F00C0121B1042906D0082966
:1005600028D107E0214B224C236027E01F4B204C71
:10057000236023E0184B5B6803F47010164B5B6834
:1005800003F48032022303EB904022B9194B43431A
:10059000174C23600DE0104B5B6803F4003323B16C
:1005A000144B4343124C236003E0104B4343104C65
:1005B000236003E00D4B0E4C236000BF00BF064BD1
:1005C0005B68C3F303130C4CE15C094B1B68CB4025
:1005D000074C236010BD00000010024000200240C4
:1005E0000000FFF8FFFFF6FE08ED00E000127A00C1
:1005F0000000002000093D0004000020704700BFFB
:10060000FEE700BFFEE700BFFEE700BFFEE7704762
:100610007047000008B50121202004F0C5FBE02050
:10062000ADF8000010208DF8030003208DF80200C3
:100630006946FE4804F0FCF82021FC4804F0A5F9C6
:1006400008BD08B50121082004F0AEFB0820ADF874
:10065000000010208DF8030001208DF8020069468B
:10066000F34804F0E5F80821F14804F08EF908BDDC
:1006700008B50121482004F097FB0121084604F049
:1006800093FB0121EB4804F0A4F90320ADF800002E
:1006900010208DF8030003208DF802006946E6481B
:1006A00004F0C6F80321E44804F06FF94FF44C70ED
:1006B000ADF8000010208DF8030003208DF8020033
:1006C0006946DB4804F0B4F84FF44C71D84804F0A4
:1006D0005CF908BD08B50121302004F065FB0E204F
:1006E000ADF8000010208DF8030001208DF8020005
:1006F0006946D24804F09CF80E21D04804F047F92E
:100700004FF47C40ADF8000010208DF8030001206C
:100710008DF802006946C54804F08AF84FF47C4120
:10072000C24804F034F908BD08B50121202004F0C6
:100730003BFB4FF4FE70ADF8000048208DF803003D
:100740006946BD4804F074F808BD08B50121682069
:1007500004F02AFB4FF20300ADF8000048208DF8AA
:1007600003006946B24804F063F84FF44070ADF8F6
:10077000000048208DF803006946AC4804F058F8A2
:100780004FF4F040ADF8000048208DF803006946B2
:10079000A94804F04DF808BD08B50121402004F037
:1007A00003FB4FF48060ADF8000010208DF80300CB
:1007B00001208DF8020069469F4804F039F84FF493
:1007C00080619D4804F0E1F808BD10B59C480068C0
:1007D00008B9012000E00020994908600A2003F0D0
:1007E000E8FA9848D0F8A80108B9012000E00020F4
:1007F0009349086010BD08B50121402004F0D4FAE7
:100800004FF40040ADF8000010208DF803000120E7
:100810008DF802006946884804F00AF84FF4004158
:10082000854804F0B4F808BD10B5FFF7F3FEFFF7F4
:1008300008FFFFF71DFFFFF777FFFFF7ADFFFFF79B
:10084000DAFFFFF747FFFFF780FF10BD10B5002468
:100850007B48A038006840B9022003F0AAFA784823
:10086000A038006808B9601C84B275489C380068DC
:1008700040B9022003F09DFA71489C38006808B91D
:10088000A01C84B26E489838006840B9022003F07A
:1008900090FA6B489838006808B9201D84B26848FF
:1008A0009438006848B9022003F083FA6448943809
:1008B000006810B904F1080084B2614890380068FB
:1008C00048B9022003F075FA5D489038006810B905
:1008D00004F1100084B25A488C38006848B90220EC
:1008E00003F067FA56488C38006810B904F120000C
:1008F00084B2204610BD10B500245148A0380068CD
:1009000040B9002003F055FA4D48A038006808B9F6
:10091000601C84B24A489C38006840B9022003F049
:1009200048FA47489C38006808B9A01C84B244487B
:100930009838006840B9022003F03BFA40489838E4
:10094000006808B9201D84B23D489838006848B94D
:10095000022003F02EFA3A489838006810B904F1E2
:10096000080084B2E0B210BD10B5002434489838B5
:10097000006840B9002003F01CFA3148983800683C
:1009800008B9601C84B2E0B210BD01202E4909787C
:10099000D1B92B499C39096841B929499C39096861
:1009A00019BB00200021284A11702BE024499C39F2
:1009B0000968012926D122499C390968012921D1D8
:1009C0000120214A11701DE01F490978012919D120
:1009D0001B499C390968012908D119499C390968C2
:1009E00001290FD10020184A11700BE014499C39DD
:1009F000096839B912499C39096819B902200021DE
:100A0000114A1170704710B500241048006838B9B9
:100A1000022003F0CEF90D48006808B9601C84B2CA
:100A200007487C380068D0B9022011E0001401406A
:100A3000000C01400002300000180140001001408D
:100A4000A80123420000234214000020008121421B
:100A500003F0AFF9CB48006808B9A01C84B2CA48BB
:100A6000006838B9022003F0A4F9C748006808B943
:100A7000201D84B2E0B210BD10B50024C148183862
:100A8000006840B9022003F094F9BE4818380068A5
:100A900008B9601C84B2BB481438006840B9022011
:100AA00003F087F9B7481438006808B9A01C84B26D
:100AB000E0B210BD10B50024B248001D006840B976
:100AC000022003F076F9AF48001D006808B9601CE9
:100AD00084B2AD48001D006840B9022003F069F9F6
:100AE000A948001D006808B9A01C84B2A6480830B7
:100AF000006840B9022003F05CF9A34808300068A0
:100B000008B9201D84B2E0B210BD10B500249D4884
:100B10001038006840B9022003F04BF999481038AA
:100B2000006808B9601C84B2E0B210BD10B50024A2
:100B300094480C30006840B9142003F03AF9914809
:100B40000C30006808B9601C84B28F480C30006813
:100B500040B9142003F02DF98B480C30006808B917
:100B6000A01C84B288482C38006840B9142003F0D7
:100B700020F985482C38006808B9201D84B28148C6
:100B80000830006848B9142003F013F97D48083094
:100B9000006810B904F1080084B27C48006840B9CC
:100BA000142003F006F97948006810B904F1100028
:100BB00084B2204610BD10B5002473483038006858
:100BC00038B9022003F0F5F86F483038006800B9F2
:100BD0000A246C48006830B9022003F0EAF869483A
:100BE000006800B90B246848006830B9022003F09F
:100BF000E0F86548006800B90C246248001D0068F0
:100C000038B9022003F0D5F85E48001D006800B92D
:100C10000D245D48001D006838B9022003F0C9F8B2
:100C20005948001D006800B90E2457480830006874
:100C300038B9022003F0BDF853480830006800B905
:100C40000F2450480C30006838B9022003F0B1F886
:100C50004C480C30006800B910244B480C30006838
:100C600038B9022003F0A5F847480C30006800B9F5
:100C7000112445482C38006838B9022003F099F84F
:100C800041482C38006800B912243E4808300068FA
:100C900038B9022003F08DF83A480830006800B9EE
:100CA00013243A48006830B9022003F082F837482C
:100CB000006800B914243548001F006838B90220C4
:100CC00003F077F83148001F006800B91524E0B23E
:100CD00010BD10B500242B482438006838B9022014
:100CE00003F067F827482438006800B90A2425482B
:100CF0002038006838B9022003F05BF8214820381A
:100D0000006800B901241F481C38006838B9022067
:100D100003F04FF81B481C38006800B9022419483A
:100D20001838006838B9022003F043F8154818381D
:100D3000006800B9032413481438006838B9022049
:100D400003F037F80F481438006800B904240D4840
:100D50001038006838B9022003F02BF80948103821
:100D6000006800B9052407480C38006838B902202B
:100D700003F01FF803480C38006800B90624E0B2FD
:100D800010BD00002C0123423081214224812242E7
:100D900070B50446002600F083FB2546E11704EBFE
:100DA00011610912A02202EB4101C8B200F02AFC35
:100DB00000F0B7FBE11704EB11610912A4EB01216C
:100DC000C8B200F01FFC00F0ACFB00F069FBA120F2
:100DD00000F018FC00F0A5FB002000F047FC0646E0
:100DE00000F07EFB304670BD70B504460E4600F044
:100DF00057FB2546E11704EB11610912A02202EB13
:100E00004101C8B200F0FEFB00F08BFBE11704EBE0
:100E100011610912A4EB0121C8B200F0F3FB00F04C
:100E200080FB304600F0EEFB00F07BFB00F058FB4F
:100E30000A2002F0BEFF70BD10B5FF20FFF7A8FF2B
:100E40000446552C01D1002010BD5521FF20FFF78D
:100E5000CBFFFF20FFF79CFF0446552C01D100205B
:100E6000F2E70120F0E710B500F003FBFFF7E4FF25
:100E700010BD2DE9F04105460E461746002409E055
:100E8000E20026FA02F2D1B22A1990B2FFF7ACFFC3
:100E9000601CC4B2BC42F3DBBDE8F0812DE9F04137
:100EA00007460C460026002509E036023919491B81
:100EB000491E88B2FFF76CFF0644681CC5B2A54204
:100EC000F3DB3046BDE8F08170B506460C461546AA
:100ED00008E03046721C96B2FFF75AFF04F8010B87
:100EE000681E85B2002DF4D170BD70B505460C4664
:100EF000164606E021782846FFF776FF681C85B283
:100F0000641C3000A6F101018EB2F3D170BD000067
:100F100008B50121102003F047FF4FF4C070ADF871
:100F2000000003208DF8020010208DF803006946B0
:100F3000FE4803F07DFC0120FD490860FD49C1F831
:100F4000A00108BD00BF411E89B20800FBD1704757
:100F50000022002107E042F6E06200E0521E002A73
:100F6000FCD14B1C99B28142F5DB70470022002175
:100F700007E0482201E0531E9AB2002AFBDC4B1C1A
:100F800099B28142F5DB704710B50120E84908604D
:100F90003220FFF7D7FF0120E649C1F8A001322037
:100FA000FFF7D0FF0020E24908603220FFF7CAFFB8
:100FB0000020E049C1F8A0013220FFF7C3FF10BDB7
:100FC00010B50020DA4908603220FFF7BBFF01208E
:100FD000D849C1F8A0013220FFF7B4FF0120D4495D
:100FE00008603220FFF7AEFF10BD70B50446002048
:100FF000CF49091D086000251BE004F0800018B1EE
:101000000120CB49086002E00020C94908600120A6
:10101000C749091D08603220FFF794FF0020C54929
:10102000C1F8A0013220FFF78DFF6006040E681C96
:10103000C5B2082DE1DB0120BD490860BD49C1F8FA
:10104000A0013220FFF77EFF0020B949091D08608A
:1010500070BD70B50024002517E00120B449091DBA
:1010600008603220FFF76EFF6006040EB148D0F82A
:101070001C0108B144F001040020AD49091D0860BD
:101080003220FFF75FFF681CC5B2082DE5DB0020AA
:10109000A749091D08603220FFF754FF0020A54929
:1010A000C1F89C013220FFF74DFF0120A049091D26
:1010B00008603220FFF746FF00209E49C1F8A001DA
:1010C0003220FFF73FFF012099490860204670BD9C
:1010D0002DE9F04781460F4615461E46DDF8208073
:1010E000002401209249091D0860FFF74DFF012FE0
:1010F00018D14846FFF779FF0A20FFF723FFE8B22F
:10110000FFF773FF0A20FFF71DFF00BF07E0305D08
:10111000FFF76BFF0A20FFF715FF601CC4B24445C0
:10112000F5DB1EE04846FFF760FF0A20FFF70AFFE5
:10113000C5F30720FFF759FF0A20FFF703FFE8B2C6
:10114000FFF753FF0A20FFF7FDFE002407E0305DA4
:10115000FFF74BFF0A20FFF7F5FE601CC4B24445C1
:10116000F5DBFFF72DFF0120BDE8F0872DE9F04703
:1011700006460F4614469846DDF8209000250120CB
:101180006B49091D08606B49C1F8A001FFF7FCFE1F
:10119000012F06D13046FFF728FFE0B2FFF725FF09
:1011A00009E03046FFF721FFC4F30720FFF71DFFDA
:1011B000E0B2FFF71AFFFFF703FF00205C49091DAB
:1011C000086001205B49C1F8A001FFF7DDFE711C3A
:1011D000C8B2FFF70AFF002505E0FFF73AFF08F85D
:1011E0000500681CC5B24D45F7D3FFF7E9FE0120A5
:1011F000BDE8F08710B501204F4908603220FFF7A5
:10120000A1FE01204D49C1F898013220FFF79AFE56
:101210000020494908603220FFF794FE002047492A
:10122000C1F898013220FFF78DFE10BD10B50020E7
:10123000414908603220FFF785FE01203F49C1F88F
:1012400098013220FFF77EFE01203B4908603220E2
:10125000FFF778FE10BD70B5044600203649091F1F
:10126000086000251BE004F0800018B1012032491D
:10127000086002E000203049086001202E49091F63
:1012800008603220FFF75EFE00202C49C1F898016B
:101290003220FFF757FE6006040E681CC5B2082D09
:1012A000E1DB0120244908602449C1F8980132207B
:1012B000FFF748FE00202049091F086070BD70B587
:1012C0000024002517E001201B49091F0860322077
:1012D000FFF738FE6006040E1848D0F81C0108B16C
:1012E00044F0010400201449091F08603220FFF770
:1012F00029FE681CC5B2082DE5DB00200E49091F38
:1013000008603220FFF71EFE00200C49C1F89C0146
:101310003220FFF717FE01200749091F086032201D
:10132000FFF710FE002005490AE000000010014010
:101330009C012242000022429C81214200802142E5
:10134000C1F898013220FFF7FDFD0120E049086057
:10135000204670BD2DE9F04781460F4615461E46D2
:10136000DDF8208000240120D949091F0860FFF71B
:1013700041FF012F18D14846FFF76DFF0A20FFF704
:10138000E1FDE8B2FFF767FF0A20FFF7DBFD00BFD2
:1013900007E0305DFFF75FFF0A20FFF7D3FD601C19
:1013A000C4B24445F5DB1EE04846FFF754FF0A206F
:1013B000FFF7C8FDC5F30720FFF74DFF0A20FFF731
:1013C000C1FDE8B2FFF747FF0A20FFF7BBFD00248D
:1013D00007E0305DFFF73FFF0A20FFF7B3FD601C19
:1013E000C4B24445F5DBFFF721FF0120BDE8F087DB
:1013F0002DE9F04706460F4614469846DDF8209042
:1014000000250120B249091F0860FFF7F3FE012FF4
:1014100006D13046FFF71FFFE0B2FFF71CFF09E0DF
:101420003046FFF718FFC4F30720FFF714FFE0B2C0
:10143000FFF711FFFFF7FAFE0020A549091F08601A
:101440000120A449C1F89801FFF7D4FE711CC8B26D
:10145000FFF701FF002505E0FFF731FF08F8050061
:10146000681CC5B24D45F7D3FFF7E0FE0120BDE88B
:10147000F08708B50121082003F096FCC020ADF8E4
:10148000000010208DF8030003208DF8020069464B
:10149000914803F0CDF9C0218F4803F076FA08BDDA
:1014A00010B58D48006820F070408B4908600846F0
:1014B000006840F040500860012085490860854977
:1014C000C1F89801042002F051FC00208049086016
:1014D000042002F04BFC00207E49C1F8980110BDA9
:1014E00010B57D48006820F070407B4908600846D0
:1014F000006840F04050086000207549091F0860EE
:101500007449C1F89C01042002F030FC01207049AC
:10151000091F08606F49C1F89C01042002F026FCF5
:1015200010BD10B500246C48006820F070406A4976
:1015300008600846006840F00040086001206449E7
:10154000086002F013FC01206249C1F8980102F022
:101550000DFC07E0601CC4B2FA2C03DDFFF7C0FFEE
:10156000012010BD5A48803800680028F2D158493F
:10157000091F086000BFF4E710B500205449091F97
:1015800008605548006820F07040534908600846DC
:10159000006840F04050086000204E49C1F89C01AE
:1015A000022002F0E3FB01204949091F08600220E4
:1015B00002F0DCFB00204749C1F8980110BD10B5CE
:1015C00000204349091F08604348006820F070402C
:1015D000414908600846006840F04050086001201A
:1015E0003C49C1F89C01022002F0C0FB01203849AF
:1015F000091F0860022002F0B9FB00203549C1F83C
:10160000980110BD70B504463348006820F0704062
:10161000314908600846006840F0405008600020EA
:101620002B49091F086000251DE0E00918B10120C1
:101630002749086002E00020254908606006040E82
:10164000022002F093FB01202149091F08600220BB
:1016500002F08CFB00201F49C1F89801022002F023
:1016600085FB681CC5B2082DDFDB70BD70B5054673
:1016700000241948006820F07040174908600846A7
:10168000006840F000400860002617E00020104984
:10169000091F0860022002F069FB01200D49C1F812
:1016A00098016006040E0A488038006808B1601C82
:1016B000C4B2012002F05AFB701CC6B2082EE5DB52
:1016C00015B9FFF77CFF01E0FFF756FF204670BD1C
:1016D0009C81214200802142000C01407CB50546DE
:1016E0000024102D28D006DC062D3AD2DFE805F0C4
:1016F0001215181B1E21232D2AD006DC112D1ED0F9
:10170000132D1FD0202D2CD11FE0302D23D0332DB1
:1017100027D123E044F6832424E044F6830421E027
:1017200044F283641EE044F283441BE044F28324C9
:1017300018E044F2830415E045F6832412E045F6F0
:1017400083040FE045F283440CE046F2832409E071
:1017500046F2834406E047F2832403E047F28344E1
:1017600000E000BF00BF2046E11704EB1161090A49
:101770008DF80410E11704EB11610912A4EB0121AB
:10178000C9B28DF80510022001AB0122114600906C
:101790009020FFF79DFC7CBD2DE9FC4107460C46DF
:1017A00000200190002500263846FFF797FF022011
:1017B00001AB0022012100909020FFF7D7FC0A2006
:1017C00002F0F7FA022001AB0022012100909020E4
:1017D000FFF7CCFC0A2002F0ECFA00BF1DE00A2063
:1017E00002F0E7FA022001AB0022012100909020D4
:1017F000FFF7BCFC9DF805109DF8040001EB0020EC
:1018000047F6FF71884206DA9DF805109DF804003E
:1018100001EB00200544701CC6B2A642DFDBB5FB1D
:10182000F4F080B2BDE8FC812DE9FC4107460C468E
:1018300000200190002500263846FFF74FFF0220C8
:1018400001AB0022012100909020FFF78FFC0120C6
:1018500002F0AFFA022001AB00220121009090209B
:10186000FFF784FC012002F0A4FA00BF1DE0012074
:1018700002F09FFA022001AB00220121009090208B
:10188000FFF774FC9DF805109DF8040001EB0020A3
:1018900047F6FF71884206DA9DF805109DF80400AE
:1018A00001EB00200544701CC6B2A642DFDBB5FB8D
:1018B000F4F080B2BDE8FC8100B587B001214FF49F
:1018C000047003F071FA4FF4004003F0D1F9F020F6
:1018D000ADF8040000208DF8070001A93E4802F091
:1018E000A7FF3020ADF8040000208DF8070001A903
:1018F0003A4802F09DFF3A4803F0BEFC00200290F7
:101900008DF80C008DF80D004FF46020049000203D
:10191000059001208DF8180002A9314803F0D3FC8E
:1019200001212F4803F0FBFC2D4803F01AFD00BFF6
:101930002B4803F01BFD0028FAD1294803F020FDB5
:1019400000BF274803F021FD0028FAD107B000BDF1
:1019500010B50446072301222146214803F04BFD20
:1019600001211F4803F01BFD00BF02211C4803F0AA
:1019700087FE0028F9D01A4803F0A4FD10BD2DE918
:10198000F04107460C460025002608E03846FFF7E0
:10199000DFFF0544322002F0E9F9701CC6B2A6420E
:1019A000F4DBB5FBF4F080B2BDE8F08130B503465E
:1019B0000C460021002523F8142000BF04E033F872
:1019C00011000544481CC1B20529F8DB0520B5FB10
:1019D000F0F080B230BD000000080140001001406E
:1019E0000024014070B504460D462946204602F009
:1019F00075FA70BD70B504460D462946204602F0C2
:101A0000A2FA70BD0120FE490860FE49C1F88801B4
:101A100070470020FA4908600120FA49C1F888019E
:101A200070470020F6490860F649C1F88801704700
:101A30001FB50446F44B0FCB8DE80F002046E1178D
:101A400004EB1161090A8DF80610E11704EB11612E
:101A50000912A4EB0121C9B28DF807100B216846C9
:101A6000FFF7C0FF1FBD10B5FFF74FF8E749087536
:101A700010BD10B50024FEF7C6FF0446E348C47449
:101A8000204604EBD0714910A4EB4101DF4A1174E8
:101A900004EBD0714C10204604EBD0714910A4EB3C
:101AA0004101CAB2D9494A7404EBD0714C102046A6
:101AB00004EBD0714910A4EB4101CAB2D3498A7436
:101AC00010BD10B50024FEF7D7FF0446CF48C473FD
:101AD000204604EBD0714910A4EB4101CB4A51736D
:101AE00004EBD0714C10204604EBD0714910A4EBEC
:101AF0004101CAB2C5498A7310BD10B50024FEF772
:101B000082FF0446C148C472204604EBD0714910DC
:101B1000A4EB4101BD4A117204EBD0714C10204678
:101B200004EBD0714910A4EB4101CAB2B7494A7223
:101B300004EBD0714C10204604EBD0714910A4EB9B
:101B40004101CAB2B1498A7210BD10B5FEF7D3FE89
:101B5000AE49487008464078887010BD10B5FFF750
:101B6000F4FFFFF7CAFFFFF7ACFFFFF782FFFFF7B5
:101B70007AFF10BD30B589B0054600241A2102A8AD
:101B800005F026FFA048103000680190FFF7E6FF3F
:101B90008DF8075005249D48407801A90855641C1C
:101BA00003200855641C9948007A0855641C97481E
:101BB000407A0855641C9548807A0855641C0220B8
:101BC0000855601CC4B29148407B0855601CC4B2E3
:101BD0008E48807B0855601CC4B203200855601CE9
:101BE000C4B28A48007C0855601CC4B28748407C57
:101BF0000855601CC4B28548807C0855601CC4B27E
:101C00008248007D0855601CC4B200200855601C45
:101C1000C4B2BA200855601CC4B2BB200855601C71
:101C2000C4B2A4F10800C0B28DF80800214601A892
:101C3000FFF7D8FE09B030BD10B52020FFF79AFF9E
:101C400010BD10B52320FFF795FF10BD0EB570A293
:101C500007CA8DE8070009216846FFF7C3FE0EBDDD
:101C60000EB56EA207CA8DE8070009216846FFF786
:101C7000B9FE0EBD00206249091F08606149C1F824
:101C80008C0162490870704710B50024FEF733FEDE
:101C90000446092C1AD2DFE804F005090D191119C0
:101CA0001919150000205949887013E0012057497F
:101CB00088700FE00220554988700BE004205349DA
:101CC000887007E003205149887003E005204F49E0
:101CD000887000BF00BF10BD30B589B0002500245A
:101CE00051A207CA06AB07C352A207CA03AB07C378
:101CF00053A207CA8DE80700FFF7C6FF0546FEF7A7
:101D000033FE0446012C3ED140488079072835D265
:101D1000DFE800F034040C141C242C00FFF772FEE2
:101D20004A480088401C4949088028E0FFF771FEB6
:101D300046480088401C4549088020E0FFF769FEBE
:101D400042480088401C4149088018E0FFF75AFECD
:101D50003E480088401C3D49088010E0FFF759FECE
:101D60003A480088401C3949088008E0FFF74AFEDD
:101D700036480088401C3549088000E000BF00BF9D
:101D80002248C4710CE0FFF74CFE2048C0790128BE
:101D900003D109216846FFF725FE00201B49C871C1
:101DA0001A488079002813DD1848807905280FDA51
:101DB00026480088FA280BD1FFF733FE002013498C
:101DC0008871092103A8FFF70DFE00201F49088034
:101DD0000E488079052803D00C488079062839D12F
:101DE0001A480088B0F5FA7F34D1FFF71AFE0020B8
:101DF00006498871092103A8FFF7F4FD002027E0B8
:101E00008C01224200002242348700088412002004
:101E1000AAAB2024012000BABB000000AAAB2027F7
:101E2000012000BABB000000AAAB202B010100BAC0
:101E3000BB000000AAAB202B010000BABB000000D1
:101E4000AAAB202B010300BABB0000001600002043
:101E5000FE490880FE48807907286BD2DFE800F051
:101E60006A04152637485900F948807804280BD1B0
:101E7000FFF7D7FD0020F6498871092106A8FFF772
:101E8000B1FD0020F149088055E0F1488078012833
:101E90000BD1FFF7C6FD0020ED498871092106A886
:101EA000FFF7A0FD0020E949088044E0E848807879
:101EB00002280BD1FFF7B5FD0020E5498871092103
:101EC00006A8FFF78FFD0020E049088033E0E048D6
:101ED000807802280BD1FFF7A4FD0020DC4988712F
:101EE000092106A8FFF77EFD0020D849088022E0DE
:101EF000D748807802280BD1FFF793FD0020D44902
:101F00008871092106A8FFF76DFD0020CF490880E0
:101F100011E0CF48807803280BD1FFF782FD002025
:101F2000CB498871092106A8FFF75CFD0020C7494D
:101F3000088000E000BF00BF09B030BD0EB5C5A2EB
:101F400007CA8DE80700FFF79FFEC14880788DF82B
:101F5000050009216846FFF745FD0EBD3EB5044664
:101F60000025AFF23C1207CA8DE80700FFF78CFE90
:101F7000B7488178BAA005F055FC052C57D2DFE8A8
:101F800004F0030915214000FFF74BFD0020B04984
:101F900088714EE0AE488078022805D1FFF732FD07
:101FA0000120AB49887100E0012542E0A848807813
:101FB000022805D1FFF72DFD0220A549887100E018
:101FC000012536E0A2488078012804D003280ED0ED
:101FD000042812D105E0FFF715FD04209C49887103
:101FE0000DE0FFF716FD03209949887107E0FFF720
:101FF00009FD05209649887101E0002500BF00BF5A
:1020000017E09348807810B102280CD105E0FFF763
:10201000F9FC06208E49887107E0FFF7F3FC0620E3
:102020008B49887101E0002500BF00BF01E0002559
:1020300000BF00BF012D0ED1FFF7F3FC0020844943
:10204000887104208DF8050009216846FFF7CAFC55
:102050008CA001F038FE01203EBD3EB50446AFF233
:10206000382207CA8DE807008DF805400921684627
:10207000FFF7B8FC3EBD10B5754881788BA005F020
:10208000D1FB73488078002833D17148817887A0CC
:1020900005F0C8FB0120FFF761FF04E0FFF71CFE1D
:1020A0000A2001F086FE6A4800780028F6D14FF435
:1020B0007A7001F07EFE0120FFF750FF04E0FFF789
:1020C0000BFE0A2001F075FE614800780028F6D169
:1020D0004FF47A7001F06DFE0220FFF73FFF04E03D
:1020E000FFF7FAFD0A2001F064FE59480078002845
:1020F000F6D110BD3EB5044670A207CA8DE80700B0
:10210000601CC0B28DF8060051480830005D8DF8A3
:1021100007000B216846FFF765FC3EBD38B500247B
:10212000002000900025FEF76EFC04464848C07A67
:10213000A0423BD04648C472204604EBD0714910FF
:10214000A4EB4101C9B28DF8001004EBD071C1F3CA
:102150004704204604EBD0714910A4EB4101C9B2F9
:102160008DF8011004EBD0714C10204604EBD071B7
:102170004910A4EB4101C9B28DF8021000BF13E071
:102180001DF8051032480830405D81420AD01DF824
:1021900005102F48083041552846FFF7ABFF322085
:1021A00001F007FE681CC5B2032DE9DB38BD3EB562
:1021B000044645A207CA8DE807008DF80640601E58
:1021C00023490831085C8DF807000B216846FFF7AA
:1021D00009FC3EBD1CB53FA103C9CDE900010821A2
:1021E0006846FFF7FFFB1CBD1949087370473B4960
:1021F000086070471CB5044639A103C9CDE9000148
:1022000013480473012C02DC0120FFF7F0FF022CBD
:1022100002D10020FFF7EBFF08216846FFF7E2FB41
:102220001CBD3EB5044630A207CA8DE80700601CFD
:10223000C0B28DF8060006480D30005D8DF807002D
:102240000B216846FFF7CEFB3EBD000016000020C4
:1022500084120020AAAB2029010100BABB000000B3
:102260005265636569766520726F746174696F6E1B
:1022700020636F6D6D616E64202053746174653AE4
:10228000256400005265636569766520726F74612C
:1022900074696F6E20636F6D6D616E64204174634D
:1022A00074696F6E204552524F5221004D6F746F0A
:1022B000725F536974653A25640D0A00AAAB202E3B
:1022C0000300000000BABB00AAAB202D03000000F1
:1022D00000BABB00AAAB20300000BABBBC812242CE
:1022E000AAAB20330000BABBAAAB20360300000122
:1022F00000BABB0038B50024002000900025FEF78E
:10230000BBFB0446C748C07BA0422FD0C548C4735E
:10231000204604EBD0714910A4EB4101C9B28DF8FD
:10232000001004EBD071C1F34704204604EBD071D8
:102330004910A4EB4101C9B28DF8011000BF13E0B0
:102340001DF80510B7480D30405D81420AD01DF8D8
:102350000510B4480D3041552846FFF762FF322082
:1023600001F027FD681CC5B2022DE9DB38BD3EB582
:102370000446ADA207CA8DE807008DF80540601E2F
:10238000A8490D31085C8DF806000A216846FFF760
:1023900029FB3EBD3EB50446A6A207CA8DE807004C
:1023A000601CC0B28DF806009E481030005D8DF8AC
:1023B00007000B216846FFF715FB3EBD38B500242A
:1023C000002000900025FEF775FB04469548C07C70
:1023D000A0423BD09348C474204604EBD07149100E
:1023E000A4EB4101C9B28DF8001004EBD071C1F328
:1023F0004704204604EBD0714910A4EB4101C9B257
:102400008DF8011004EBD0714C10204604EBD07114
:102410004910A4EB4101C9B28DF8021000BF13E0CE
:102420001DF805107F481030405D81420AD01DF82C
:1024300005107C48103041552846FFF7ABFF32208D
:1024400001F0B7FC681CC5B2032DE9DB38BD3EB511
:1024500004467BA207CA8DE807008DF80640601E7F
:1024600070491031085C8DF807000B216846FFF7B2
:10247000B9FA3EBD0EB575A207CA8DE807006948D6
:10248000007D8DF8050009216846FFF7ABFA0EBD07
:1024900010B50024FEF739FB04466248007DA042D7
:1024A00003D060480475FFF7E5FF10BD0EB56AA2C2
:1024B00007CA8DE807005B48007D8DF805000921FB
:1024C0006846FFF78FFA0EBD10B54120FFF752FBAB
:1024D00010BD02465378107803EB00204AF6AB2378
:1024E000984209D1481E135C881E105C03EB002043
:1024F0004BF6BB23984201D000207047D0780F28BC
:1025000003D1907830B10020F7E79078202801D0EF
:102510000020F2E71379A1F10800834201D00020E6
:10252000EBE70120E9E770B504460D462946204651
:10253000FFF7CFFF002843D0E078312829D00CDC0A
:10254000282819D004DC0F2813D0222836D10DE01A
:102550002A2814D02C2831D115E032281DD0342857
:102560001FD03A2821D0402828D124E0FFF769FB6A
:1025700025E0FFF775FB22E0FFF7E0FC1FE0607944
:10258000FFF7ECFC1BE0207810B1A079FFF70FFEFD
:1025900015E06079FFF728FE11E06079FFF72AFE69
:1025A0000DE06079FFF7E3FE09E0207810B1A07933
:1025B000FFF74DFF03E0FFF779FF00E000BF00BF2A
:1025C00070BDA2B0802102A805F002FA002001909F
:1025D0000024FFF73BFBC82001F0EBFBFFF72CFBCF
:1025E000FFF749FD1CE001A902A8FFF703FA9DF8D7
:1025F000040030B19DF8041002A8FFF794FF0020FA
:102600000190FFF769FBFFF789FDFFF773FEFFF706
:10261000D5FEFFF73DFF641CB4F5FA6F00D100242E
:10262000E1E7000084120020AAAB20350200000080
:10263000BABB0000AAAB20380300010100BABB00FE
:10264000AAAB203B0300000000BABB00AAAB203EAF
:10265000010000BABB000000AAAB2041010000BA93
:10266000BB00000070477047704770B504460D46C8
:102670002946204601F01BFD70BD70B504460D468D
:102680002946204601F0F1FC70BD70B504460D46A8
:102690000120F84908602946204601F0B1FC0020DD
:1026A000F549C1F8BC0129462046FFF7DDFF70BDA2
:1026B00070B504460D462946204601F07FFC70BDEA
:1026C000F0B589B00646002700240025122104A891
:1026D00005F07EF9E94A07CA01AB07C38DF8076028
:1026E0008DF808700524062001A90855641C00BF58
:1026F00007E0E348405D01A90855601CC4B2681CAE
:10270000C5B2062DF5DB022001A90855601CC4B234
:10271000002508E0DA480A30405D01A90855601C30
:10272000C4B2681CC5B2022DF4DB012001A9085512
:10273000601CC4B2002508E0D1481630405D01A9F4
:102740000855601CC4B2681CC5B2012DF4DB05201D
:1027500001A90855601CC4B2002508E0C848203013
:10276000405D01A90855601CC4B2681CC5B2052DA6
:10277000F4DBC3480C3890F83E0001A90855601CF2
:10278000C4B2BF480C3890F820000855601CC4B291
:10279000BB480C3890F83B000855601CC4B2201FA1
:1027A000C7B28DF8087000200855601CC4B2BA206A
:1027B0000855601CC4B2BB200855601CC4B2214639
:1027C00001A8FFF752FF09B0F0BD10B55020FFF788
:1027D00077FF10BD10B55320FFF772FF10BD0EB587
:1027E000A8A207CA8DE8070009216846FFF73DFF48
:1027F0000EBD0EB5A6A207CA8DE8070009216846DE
:10280000FFF733FF0EBD70B588B0054600260024E3
:1028100020229A490C31684605F0A8F8062D00DD03
:10282000062559208DF80300012000EB4500C0B2B9
:102830008DF804008DF805500624294697A004F071
:10284000F1FF002625E08E490C3931F81600C1173A
:1028500000EB1161C1F307210DF80410601CC4B234
:1028600087490C3931F81600C11700EB11610912C4
:10287000A0EB0121C9B20DF80410601CC4B280485D
:102880000C3830F81620314687A004F0CBFF701CBE
:10289000C6B2AE42D7DB00200DF80400601CC4B203
:1028A000BA200DF80400601CC4B2BB200DF804006F
:1028B000601CC4B221466846FFF7D7FE08B070BD61
:1028C00070B588B005460026002420226B492C31C3
:1028D000684605F04BF8052D00DD05255B208DF8D9
:1028E0000300012000EB4500C0B28DF804008DF814
:1028F0000550062400261DE06149891D31F81600A7
:10290000C11700EB1161C1F307210DF80410601C21
:10291000C4B25B49891D31F81600C11700EB116183
:102920000912A0EB0121C9B20DF80410601CC4B259
:10293000701CC6B2AE42DFDB00200DF80400601C44
:10294000C4B2BA200DF80400601CC4B2BB200DF85C
:102950000400601CC4B221466846FFF786FE08B03A
:1029600070BD70B588B0054600260024202243497A
:102970004C31684604F0FAFF052D00DD05255D2089
:102980008DF803006806000E8DF80400052400266B
:102990001DE03B490C3131F81600C11700EB116105
:1029A000C1F307210DF80410601CC4B234490C3186
:1029B00031F81600C11700EB11610912A0EB0121DB
:1029C000C9B20DF80410601CC4B2701CC6B2AE428D
:1029D000DFDB00200DF80400601CC4B2BA200DF843
:1029E0000400601CC4B2BB200DF80400601CC4B21B
:1029F00021466846FFF739FE08B070BD70B588B053
:102A000005460026002420221C496C31684604F04B
:102A1000ADFF052D00DD05255F208DF803000120A9
:102A200000EB4500C0B28DF804008DF80550062477
:102A3000002608E012481530805D0DF80400601C87
:102A4000C4B2701CC6B2AE42F4DB00200DF8040024
:102A5000601CC4B2BA200DF80400601CC4B2BB20D4
:102A60000DF80400601CC4B221466846FFF7FDFD66
:102A700008B070BDBC012342000023424887000813
:102A8000AC120020AAAB3054013000BABB000000E9
:102A9000AAAB3057013000BABB0000004E756D3A4A
:102AA00025640D0A0000000054656D5B25645D20FF
:102AB0003D2025640D0A000070B588B00025002473
:102AC00004261A2101A804F083FFFE480068009044
:102AD00061208DF803008DF80460052400BF0BE031
:102AE000F949485DC11700EB116109120DF8041096
:102AF000601CC4B2681CC5B2B542F1DB00200DF801
:102B00000400601CC4B2BA200DF80400601CC4B2FA
:102B1000BB200DF80400601CC4B221466846FFF7D4
:102B2000A4FD08B070BD30B589B004460D4616212D
:102B300003A804F04DFFE349091D03C9CDE90101D4
:102B4000052C06DA601EE0490D54062101A8FFF7A6
:102B50008CFD09B030BD7CB50020009001900025AF
:102B60000024802500BF06E0D748001D005D0DF859
:102B70000400601CC4B2052CF6DB05226946284619
:102B8000FEF7B3F97CBD7CB50020009001900025D4
:102B900000248025052269462846FEF795F900BFE6
:102BA00006E01DF80410C848001D0155601CC4B2A1
:102BB000052CF6DBC448233890F82700C349086089
:102BC000C148233890F82800C149C1F8A801BE487F
:102BD000233890F82900BD49091D0860BA482338F8
:102BE00090F82A00B9490C310860B748233890F8AA
:102BF0002B00091F08607CBD70B504460D46B24825
:102C0000001D005D08B9012100E00021AE48001D53
:102C100001552A462146AFA004F004FE052C3FD200
:102C2000DFE804F0030E1A263200A748233890F894
:102C3000270008B9012000E00020A449086030E026
:102C4000A148233890F8280008B9012000E00020AE
:102C50009E49091F086024E09B48233890F829000A
:102C600008B9012000E000209849091D086018E01B
:102C70009548233890F82A0008B9012000E0002088
:102C800092490C3108600CE08F48233890F82B00F3
:102C900008B9012000E000208C490831086000E0FC
:102CA00000BF00BFFFF757FF70BD70B505460C466B
:102CB000224629468EA004F0B5FD052D17D2DFE887
:102CC00005F003060A0E12008048046010E07F48F9
:102CD000001F04600CE07D48001D046008E07B4894
:102CE0000C30046004E079480830046000E000BF64
:102CF00000BFFFF730FF70BD70477CB50025002492
:102D0000002000900190FDF711FF04466E48233823
:102D1000C08EA0425AD06C482338C486204604EBAB
:102D2000D0714910A4EB4101C9B28DF8001004EB39
:102D3000D071C1F34F04204604EBD0714910A4EBCD
:102D40004101C9B28DF8011004EBD0714C1020463E
:102D500004EBD0714910A4EB4101C9B28DF8021007
:102D600004EBD0714C10204604EBD0714910A4EB59
:102D70004101C9B28DF8031004EBD0714C1020460C
:102D800004EBD0714910A4EB4101C9B28DF80410D5
:102D900021465DA004F046FD00BF15E01DF80510BA
:102DA00049480E30405D81420CD01DF80510464860
:102DB0000E3041551DF805102846FFF71DFF322043
:102DC00000F0F7FF681CC5B2052DE7DB7CBD3EB502
:102DD000044653A207CA8DE807008DF80640601E1E
:102DE0003949091D085C8DF807000B216846FFF77B
:102DF0003CFC3EBD3448233890F835000101324890
:102E0000233890F8340001EBC0012F48233890F8A4
:102E1000330001EB80012C48233890F8320001EB9D
:102E200040002949233991F83110084426492339B3
:102E3000C88670473EB504460D463CA207CA8DE8D9
:102E40000700062C2CDA601E1F49091D085CA842E9
:102E500009D1012D03D103208DF805001AE00120CE
:102E60008DF8050016E0601E1749091D0D54012D4F
:102E700008D1611EC8B20121FFF717FF02208DF8AB
:102E8000050007E0611EC8B20021FFF70EFF002019
:102E90008DF80500FFF7AEFF09216846FFF7E5FB57
:102EA0003EBD38B500200090002400258524022274
:102EB00069462046FEF708F89DF801109DF80000CD
:102EC0003AE00000D4870008C3120020AC812242FF
:102ED0000080224253657269616C3A2564204C6916
:102EE0006768745F53746174653A25640D0A000065
:102EF0004C696768745F4F4E5F4F46463A256420C1
:102F00002025640D0A000000494F545F526561643A
:102F10005F4C47545F4B45593A25640D0A00000049
:102F2000AAAB30650300010100BABB00AAAB306751
:102F3000010000BABB00000001EB0020F649088741
:102F400038BD0EB5F5A207CA8DE80700F249088F13
:102F5000C11700EB1161090A8DF80510EE49088FC1
:102F6000C11700EB11610912A0EB0121C9B28DF864
:102F700006100A216846FFF778FB0EBD7FB50446B0
:102F8000002003900025E84A07CA8DE80700E248C0
:102F9000048785252046E11704EB1161090A8DF8A5
:102FA0000C10E11704EB11610912A4EB0121C9B265
:102FB0008DF80D10022203A92846FDF796FF08217F
:102FC0006846FFF752FB7FBD70B588B00546002606
:102FD00000242022D4490C31684604F0C7FC062D99
:102FE00000DD062584208DF8030005EB4500401C1C
:102FF000C0B28DF804008DF805500624002621E0AB
:10300000701CC0B20DF80400601CC4B2C24931F893
:103010001600C11700EB1161C1F307210DF8041070
:10302000601CC4B2BC4931F81600C11700EB116135
:103030000912A0EB0121C9B20DF80410601CC4B242
:10304000701CC6B2AE42DBDB00200DF80400601C31
:10305000C4B2BA200DF80400601CC4B2BB200DF845
:103060000400601CC4B221466846FFF7FEFA08B0AF
:1030700070BD70B588B00546002600242022AA49FC
:103080002C31684604F072FC052D00DD05258620F4
:103090008DF8030005EB4500401CC0B28DF804001C
:1030A0008DF805500624002623E0701CC0B20DF8F0
:1030B0000400601CC4B29849123131F81600C117DF
:1030C00000EB1161C1F307210DF80410601CC4B2BC
:1030D0009149123131F81600C11700EB1161091244
:1030E000A0EB0121C9B20DF80410601CC4B2701C21
:1030F000C6B2AE42D9DB00200DF80400601CC4B299
:10310000BA200DF80400601CC4B2BB200DF8040006
:10311000601CC4B221466846FFF7A7FA08B070BD2C
:1031200070B588B005460026002420227E494C3127
:10313000684604F01BFC052D00DD052588208DF870
:10314000030005EB4500401CC0B28DF804008DF86B
:103150000550062400260EE0701CC0B20DF80400D5
:10316000601CC4B26C482130805D0DF80400601C06
:10317000C4B2701CC6B2AE42EEDB00200DF80400F3
:10318000601CC4B2BA200DF80400601CC4B2BB209D
:103190000DF80400601CC4B221466846FFF765FACA
:1031A00008B070BD70B588B0054600260024202206
:1031B0005D496C31684604F0D9FB052D00DD05251D
:1031C00088208DF8030005EB4500401CC0B28DF847
:1031D0000400052400261DE04F49183131F816007F
:1031E000C11700EB1161C1F307210DF80410601C39
:1031F000C4B24949183131F81600C11700EB11610A
:103200000912A0EB0121C9B20DF80410601CC4B270
:10321000701CC6B2AE42DFDB00200DF80400601C5B
:10322000C4B2BA200DF80400601CC4B2BB200DF873
:103230000400601CC4B221466846FFF716FA08B0C5
:1032400070BD70B588B0054600260024202236499E
:103250008C31684604F08AFB052D00DD05258820A9
:103260008DF8030005EB4500401CC0B28DF804004A
:103270008DF80550062400260CE027492731885D8B
:10328000C11700EB116109120DF80410601CC4B2E3
:10329000701CC6B2AE42F0DB00200DF80400601CCA
:1032A000C4B2BA200DF80400601CC4B2BB200DF8F3
:1032B0000400601CC4B221466846FFF7D6F908B086
:1032C00070BD10B50446052C18D2DFE804F00307E2
:1032D0000B0F13000620FFF777FE10E00220FFF728
:1032E000C8FE0CE00220FFF71BFF08E00520FFF7F7
:1032F00059FF04E00520FFF7A4FF00E000BF00BF76
:1033000010BD3EB5044609A207CA8DE80700092191
:103310006846FFF7AAF93EBDA0120020AAAB308193
:1033200002000000BABB0000E0870008AAAB203E04
:10333000010000BABB00000002465378107803EB8E
:1033400000204AF6AB23984209D1481E135C881E20
:10335000105C03EB00204BF6BB23984201D0002009
:103360007047D0780F2803D1907830B10020F7E76C
:103370009078302801D00020F2E71379A1F10800FD
:10338000834201D00020EBE70120E9E71CB50446A9
:10339000F8A103C9CDE90001022C0EDA601CC0B20D
:1033A0008DF805000621684600F046FC08216846B5
:1033B000FFF76BF9F14880F83B401CBD1CB5044693
:1033C000EFA103C9CDE90001052C0CDA8DF8054009
:1033D0000621684600F030FC08216846FFF755F9E1
:1033E000E64880F83A401CBD1CB50446E6A103C976
:1033F000CDE900011F2C0DDA102C0BDD8DF80540F6
:103400000621684600F018FC08216846FFF73DF9E0
:10341000DA4884871CBD70B505460C46012D04D0E2
:10342000022D06D0032D0CD107E02046FFF7AEFF9A
:1034300008E02046FFF7C2FF04E02046FFF7D4FF74
:1034400000E000BF00BF70BD3EB50446D0A207CA71
:103450008DE8070094B9C94890F83B008DF8050045
:10346000C64890F83A008DF80600C44890F83C0031
:103470008DF807000B216846FFF7F7F83EBD70B5E1
:1034800004460D4629462046FFF756FF002864D023
:10349000E078622839D010DC5A2827D006DC0F28C3
:1034A0001DD0522818D0582855D11BE05C2821D0B7
:1034B0005E2823D060284ED124E06A283BD006DC69
:1034C000642827D0662829D0682844D12FE0802896
:1034D00036D082283FD136E0FFF77CF93CE0FFF799
:1034E00088F939E00620FFF78EF935E00220FFF772
:1034F000E7F931E00420FFF734FA2DE00220FFF76E
:103500007DFA29E0FFF7D8FA26E0A1796079FFF784
:103510000AFB21E06079FFF75AFC1DE0A37962798C
:1035200003EB0222D0B2E179FFF784FC14E02079AA
:10353000FFF78AFF10E0A1796079FFF76CFF0BE0DD
:10354000FFF7FFFC08E0A279617902EB012188B264
:10355000FFF714FD00E000BF00BF70BD10B5FFF71E
:1035600012FBFFF79EFC01218448C173C17580F8EE
:1035700030100120814981F82200022081F82000CA
:1035800081F83B0081F83E0010BD002000BF05E03F
:1035900000217A4A22F81010411CC8B20628F7DB35
:1035A000002006E000227549123121F81020411C4C
:1035B000C8B20228F6DB7047A2B0802102A804F04E
:1035C00007FA0020019000250024FFF7DEFFFFF737
:1035D000C5FFFFF704F9322000F0EBFBFFF7F5F829
:1035E0001FE001A902A8FFF748F89DF8040030B1D8
:1035F0009DF8041002A8FFF742FF002001906D1C07
:103600005E48008F00EBC00101EB0010B5EB800FAE
:1036100005D10025601CC4B2052C00D10024FFF7A1
:103620006CFBDEE701460878012800D170470020D6
:10363000FCE701460878704703465878884204D171
:103640009878904201D1012070470020FCE7F0B546
:1036500003460D460024002603EB8307474840300D
:1036600010F82710481CC1B203EB830743484030D1
:1036700000EB870020F81150914200D1002103EBAC
:1036800083073E48403020F8271001240AE003EB6E
:1036900083073A48403000EB870030F814000644B6
:1036A000601CC4B29442F2DDB6FBF2F080B2F0BD11
:1036B0002DE9FC4704460F464FF00008C146394645
:1036C000204600F09FFA002851D004220321204612
:1036D000FFF7B2FF00284AD02078042847DA207884
:1036E000401E00F0FF082179E07801EB0020A0F5F2
:1036F000FA601FFA80F9052249464046FFF7A7FF06
:103700002178491E1D4A22F811002078401D00F042
:10371000FF08A179607901EB00201FFA80F90522EA
:1037200049464046FFF793FF2178491E134A12325B
:1037300022F811002179E07801EB0020A0F5FA6071
:1037400085B2A179607901EB002086B22078401E15
:10375000114631F81000CDE900602078401E123A81
:1037600032F8103021782A460CA004F05BF8BDE84E
:10377000FC8700000306000100010000A0120020E9
:103780000306000200010000030600030001000020
:10379000AAAB30690300000000BABB004144443AC0
:1037A000256420202054203D2025642020256420ED
:1037B000202048203D20256420202564200D0A007B
:1037C000A8B0802108A804F003F9DE4A07CA05ABB7
:1037D00007C3DC4A0C3207CA02AB07C300200190C2
:1037E0000024D9A004F01EF8082105A8FEF74DFF1B
:1037F00024E001A908A8FEF75BFF9DF8040070B162
:103800009DF8041008A8FEF72EFF9DF8041008A8E4
:10381000FFF74EFF00200190642000F0CAFA601C00
:1038200084B2322C03D1082105A8FEF72EFF642CA8
:1038300004D10024082102A8FEF727FFD9E72DE9CB
:10384000F04F87B00446208804F01BFC0746C44AAA
:10385000C44B04F029FC054604F0B2F983466088A5
:1038600004F00FFC0546BE4ABE4B04F01DFC0746A3
:1038700004F0A6F906904FF08141584604F0D6FEB8
:10388000019004F0F9FD0022B74BCDE9020104F0EC
:103890000BFC0022B54BCDE9040104F003FD054605
:1038A0000022B34B04F000FC074604F0BBFB81464A
:1038B0004FF08141069804F0B9FE019004F0DCFD60
:1038C0000022A94BCDE9020104F0EEFB05460022DF
:1038D000A64B04F0E7FC07460022A54B04F0E4FBEE
:1038E000CDE9040104F09EFB8246B9F1000F03DD2F
:1038F000A049A1F8069002E09E49A1F80690BAF10D
:10390000000F03DD9B49A1F808A002E09949A1F846
:1039100008A007B0BDE8F08F92B04FF0000BDA4678
:10392000002011900D900E900F90109000BF0A9003
:103930000B900C9000BF00BF0890099000BF8EA0B4
:1039400003F070FFEDE0022011AB00220121009096
:103950009020FDF70BFC32209BFBF0F000284DD0AF
:10396000012821D0022834D003285CD132209BFBCF
:10397000F0F100FB11B0052803DA0320FDF7AEFEDD
:1039800011E09DF845109DF8440001EB0020B0F5D2
:10399000004F08DA9DF845109DF8440001EB002027
:1039A0000D9908440D903EE032209BFBF0F100FBA6
:1039B00011B0052803DA1320FDF790FE08E09DF80A
:1039C00045109DF8440001EB00200E9908440E902C
:1039D00029E032209BFBF0F100FB11B0052803DA4F
:1039E0002320FDF77BFE08E09DF845109DF844007C
:1039F00001EB00200F9908440F9014E032209BFB4C
:103A0000F0F100FB11B0052803DA3320FDF766FE64
:103A100008E09DF845109DF8440001EB0020109946
:103A20000844109000BF00BF0BF1010000F0FF0B35
:103A3000BBF1C80F72D14FF0000A49E00DA850F851
:103A40002A002D21B0FBF1F00AA921F81A0031F863
:103A50001A0004F016FB0646414A4A4B04F024FBC8
:103A600004460022484B04F085F90022474BCDE97B
:103A7000000104F017FC00223B4BCDE9020104F0E9
:103A800013FB80460022394B04F00CFC0022404B13
:103A9000CDE9040104F008FBCDE9060104F0C2FA07
:103AA00008A921F81A00BAF1020F0DDA08AA32F8B3
:103AB0001A100AF10302D0B20522FFF7C8FD2D4A01
:103AC0000AF1030122F811000AF1010000F0FF0AD7
:103AD000BAF1040FB2DBBDF82E00BDF82C10BDF812
:103AE0002220CDE900210290BDF82A30BDF8202027
:103AF000BDF8281027A003F095FE00202F4908608C
:103B00008346824607E000200DA941F82A000AF109
:103B1000010000F0FF0ABAF1040FF4DB0A2000F004
:103B200048F910E700240CE00A210E20FDF727FFDA
:103B30000446214622A003F075FE4FF4FA7000F00F
:103B400038F9F1E78C880008494F545F4D6F646283
:103B500075735F526561645F54480D0A0000000090
:103B60007B14AE47E17A443F00C022400000494048
:103B700000002440A0120020414453313131350D62
:103B80000A000000E17A34400000E04000001040EC
:103B9000000059404144303A2564202025642041EA
:103BA00044313A256420256420204144323A25647A
:103BB000204144333A25640D0A00000094812242DA
:103BC0004144435F4368616E6E656C5F31343A25F2
:103BD000640D0A0070B502460C46FF25FF2309E07C
:103BE00012F8010B80EA03012A48405C80EA0503D1
:103BF0002948455C2000A4F10106F4B2F0D143EA63
:103C0000052070BD70B505460C460026A01EC1B249
:103C10002846FFF7DFFF0646601E285CB0EB262F24
:103C200008D1A01E285CF1B2884201D1012070BDEC
:103C30000020FCE70020FAE770B504460D46002698
:103C400029462046FFF7C6FF06463112681C21545C
:103C5000665570BD03B568460A46C378937083788D
:103C6000D37003781370437853700CBD08B50023EC
:103C7000009343788DF8003003788DF80130C378D5
:103C80008DF8023083788DF803306A4613680B6034
:103C900008BD0000A2880008A289000810B50446EB
:103CA00021460CA003F0BEFD10BD10B50446214610
:103CB0000DA003F0B7FD10BD10B5044621460FA0BE
:103CC00003F0B0FD10BD70477047704770477047F4
:103CD000704770475B44454255475D2D3E284D294E
:103CE0003A25730D0A0000005B44454255475D2D9F
:103CF0003E2850293A25730D0A0000005B444542D6
:103D000055475D2D3E2854293A25730D0A000000C1
:103D100010B501F018FE01F05CFF01F02FFE10BDA0
:103D200010B56FF0040000F004FD3148006831491F
:103D3000B0FBF1F0304908702D4800682D49B0FB08
:103D4000F1F441F28830444305202C4908804FF0BB
:103D5000E020006940F002004FF0E02108610846D1
:103D60004461006940F00100086110BD70B5034670
:103D700000224FF0E02675691F4E367803FB06F4EB
:103D800000BF4FF0E026B16910E04FF0E026B069C7
:103D900088420BD0884202D20E1A324402E02E1A18
:103DA0000E4432440146A24200D300E0EDE700BFDA
:103DB00070BD70B5044612480078012811D10F4833
:103DC0000088844206DB0D48008894FBF0F5284605
:103DD00003F09EFB0948008894FBF0F100FB1140C2
:103DE00084B24FF47A7104FB01F0FFF7BFFF70BD9E
:103DF0000000002000127A00180000201A000020A5
:103E00006200002010B54FF4A06000F043FC10BD2C
:103E1000014600BF704700BFFE4A128802F0400210
:103E2000002AF9D0C2B2FB4B1B1D1A80704710B597
:103E300040F22551F74801F0DBF980B1F54801F077
:103E400057F9C4B2F4480078802808DAF348F249F8
:103E500009784454F0480078401CEF49087010BDC0
:103E60002DE9F04107460D46EB4806780024002076
:103E700028700A20FFF79DFFE748007886420FD19F
:103E800076B100BF04E0E548005D3855601CC4B25F
:103E9000B442F8DBE048007828700020DE49087062
:103EA000BDE8F08170B505460E4600240CE000BF69
:103EB0004021D84801F086F90028F9D0295DD5487D
:103EC00001F012F9601CC4B2B442F0DB00BF402123
:103ED000D04801F077F90028F9D070BD70B50546DB
:103EE0000E4600240CE000BF4021CD4801F06AF9E5
:103EF0000028F9D0295DCA4801F0F6F8601CC4B268
:103F0000B442F0DB00BF4021C54801F05BF9002856
:103F1000F9D070BD10B540F22551C14801F068F9E3
:103F200080B1BF4801F0E4F8C4B2BE4800788028F0
:103F300008DABD48BB4909784454BA480078401CA7
:103F4000B849087010BD2DE9F04107460D46B54847
:103F500006780024002028700A20FFF72AFFB148C5
:103F6000007886420FD176B100BF04E0AE48005D14
:103F70003855601CC4B2B442F8DBAA4800782870F7
:103F80000020A8490870BDE8F08110B540F2255125
:103F9000A64801F02DF980B1A44801F0A9F8C4B2F7
:103FA000A3480078802808DAA248A1490978445437
:103FB0009F480078401C9E49087010BD2DE9F041D3
:103FC00007460D469A4806780024002028700A20EB
:103FD000FFF7EFFE9648007886420FD176B100BF1A
:103FE00004E09448005D3855601CC4B2B442F8DB6C
:103FF0008F480078287000208D490870BDE8F08156
:1040000070B505460E4600240CE000BF40218748ED
:1040100001F0D8F80028F9D0295D844801F064F84F
:10402000601CC4B2B442F0DB00BF40217F4801F005
:10403000C9F80028F9D070BD10B540F225517E486E
:1040400001F0D6F880B17C4801F052F8C4B27B4848
:104050000078802808DA7A48784909784454774803
:104060000078401C7549087010BD2DE9F0410746E5
:104070000D46724806780024002028700A20FFF7B9
:1040800098FE6E48007886420FD176B100BF04E0FA
:104090006B48005D3855601CC4B2B442F8DB674819
:1040A00000782870002065490870BDE8F08170B57F
:1040B00005460E4600240CE000BF40215E4801F09A
:1040C00081F80028F9D0295D5B4801F00DF8601CEB
:1040D000C4B2B442F0DB00BF4021574801F072F88F
:1040E0000028F9D070BD10B540F22551554801F0B7
:1040F0007FF880B1534800F0FBFFC4B2524800780B
:10410000802808DA51485049097844544E480078CC
:10411000401C4D49087010BD2DE9F04107460D4681
:10412000494806780024002028700A20FFF741FE45
:104130004548007886420FD176B100BF04E043487D
:10414000005D3855601CC4B2B442F8DB3E480078CC
:10415000287000203C490870BDE8F08170B5054624
:104160000E4600240CE000BF4021364801F02AF83A
:104170000028F9D0295D334800F0B6FF601CC4B2B6
:10418000B442F0DB00BF40212E4801F01BF80028AC
:10419000F9D070BD2DE9F04186B004460D461646B3
:1041A0001F46DDF83080012144F20C0000F0FCFDD8
:1041B00001214FF4C02000F004FE01214FF4C01093
:1041C00000F0FFFD0121302000F0EEFD114800F06D
:1041D0004FFE134800F04CFE144800F049FE16480C
:1041E00000F046FE174800F043FE4FF40070ADF8B3
:1041F000140003208DF8160018208DF8170005A96B
:10420000134800F015FB4FF48060ADF81400042053
:1042100020E000000038014020000020A81300200A
:1042200000440040210000202814002000480040E5
:1042300022000020A8140020004C00402300002091
:10424000281500200050004024000020A815002060
:10425000000801408DF8170005A9F54800F0E8FABC
:104260000420ADF8140003208DF8160018208DF8F6
:10427000170005A9EE4800F0DBFA0820ADF814009D
:1042800004208DF8170005A9E94800F0D1FA4FF491
:104290008060ADF8140003208DF8160018208DF80A
:1042A000170005A9E34800F0C3FA4FF40060ADF829
:1042B000140004208DF8170005A9DE4800F0B8FAB4
:1042C0004FF48060ADF8140003208DF8160018201C
:1042D0008DF8170005A9D84800F0AAFA4FF400603D
:1042E000ADF8140004208DF8170005A9D24800F09D
:1042F0009FFA4FF48050ADF8140003208DF816009B
:1043000018208DF8170005A9CB4800F091FA042079
:10431000ADF814008DF8170005A9C84800F088FA18
:1043200001940020ADF80800ADF80A00ADF80C00CB
:10433000ADF810000C20ADF80E0001A9C04800F047
:10434000DAFD01950020ADF80800ADF80A00ADF8DF
:104350000C00ADF810000C20ADF80E0001A9B94812
:1043600000F0C9FD01960020ADF80800ADF80A0084
:10437000ADF80C00ADF810000C20ADF80E0001A94E
:10438000B14800F0B8FD01970020ADF80800ADF885
:104390000A00ADF80C00ADF810000C20ADF80E00CE
:1043A00001A9AA4800F0A7FDCDF804800020ADF8CF
:1043B0000800ADF80A00ADF80C00ADF810000C20B4
:1043C000ADF80E0001A9A24800F095FD25208DF85A
:1043D000000003208DF8010001208DF802008DF807
:1043E0000300684600F05BF9012240F22551944831
:1043F00000F019FE26208DF8000003208DF8010042
:1044000002208DF8020001208DF80300684600F0BC
:1044100046F9012240F225518A4800F004FE272087
:104420008DF8000003208DF801008DF802000120B6
:104430008DF80300684600F032F9012240F2255160
:10444000814800F0F0FD34208DF8000004208DF844
:10445000010001208DF802008DF80300684600F08D
:104460001EF9012240F22551784800F0DCFD35208C
:104470008DF8000004208DF8010002208DF8020064
:1044800001208DF80300684600F009F9012240F28E
:1044900025516F4800F0C7FD0121694800F0B7FDC4
:1044A0000121684800F0B3FD0121674800F0AFFD2D
:1044B0000121664800F0ABFD0121654800F0A7FD31
:1044C00006B0BDE8F081F0B503460D46164600275C
:1044D00029460A2E03D0002008702846F0BD33B9C3
:1044E000302001F8010B002008702846F6E7002B69
:1044F00003DA2D2001F8010B5B4242F210720DE04D
:1045000093FBF2F404B937B104F1300001F8010B68
:1045100004FB123301270A2092FBF0F2002AEFDCA1
:10452000002008702846D9E70FB470B586B006465B
:104530000CA8019073E00B9800785C281CD10B98B4
:10454000401C0B9000786E2809D072280FD10D21E5
:10455000304600F0C9FD0B98401C0B900BE00A217F
:10456000304600F0C1FD0B98401C0B9003E00B9807
:10457000401C0B9000BF4BE00B980078252840D1E1
:104580000B98401C0B900078642818D0732833D106
:10459000019810C801900BE02178304600F0A4FD8E
:1045A00000BF4021304600F00DFE0028F9D0641C09
:1045B00020780028F0D10B98401C0B9020E0019847
:1045C00020C801900A2202A92846FFF77CFF02AC0E
:1045D0000BE02178304600F087FD00BF40213046D7
:1045E00000F0F0FD0028F9D0641C20780028F0D1FC
:1045F0000B98401C0B9003E00B98401C0B9000BFE5
:1046000006E00B9810F8011B0B90304600F06CFD93
:1046100000BF4021304600F0D5FD0028F9D00B98AE
:104620000078002887D106B070BC5DF814FB00004C
:1046300000080140000C014000100140001401403E
:10464000003801400044004000480040004C004059
:10465000005000400948804709480047FEE7FEE750
:10466000FEE7FEE7FEE7FEE7FEE7FEE7FEE7FEE722
:1046700004480549054A064B70470000FB04000842
:10468000310100080821002008270020082300200D
:104690000823002031490143314A1160704770B549
:1046A000002100230F22C47804B32D4C246804F4A5
:1046B000E064C4F5E064210AC1F10403CA4044780F
:1046C00004FA03F18478144021430901254C06784B
:1046D000A155047804F01F050124AC4005786D1144
:1046E000AD0005F1E025C5F8004109E0047804F0CB
:1046F0001F050124AC401C4D0678761145F8264074
:1047000070BD1A4A0A400243154B1B1F1A607047BE
:1047100039B1134A121D12680243114B1B1D1A6056
:1047200006E00F4A121D126882430D4B1B1D1A60D2
:104730007047042808D14FF0E021096941F00401D5
:104740004FF0E022116107E04FF0E021096921F00C
:1047500004014FF0E0221161704700000000FA05EB
:104760000CED00E000E400E080E100E080FFFF1FCE
:1047700010B50446CC48844208D10121042000F041
:104780002DFB0021042000F029FB46E0C7488442AD
:1047900008D10121082000F021FB0021082000F0B1
:1047A0001DFB3AE0C248844208D10121102000F0EC
:1047B00015FB0021102000F011FB2EE0BD488442C3
:1047C00008D10121202000F009FB0021202000F069
:1047D00005FB22E0B848844208D10121402000F0C6
:1047E000FDFA0021402000F0F9FA16E0B3488442B7
:1047F00008D10121802000F0F1FA0021802000F092
:10480000EDFA0AE0AE48844207D10121801500F09C
:10481000E5FA0021A01500F0E1FA10BD10B5012164
:10482000084600F0DBFA0021012000F0D7FA10BDA5
:104830002DE9F04102460025002600200023002437
:10484000002791F803C00CF00F0591F803C00CF09D
:10485000100CBCF1000F03D091F802C04CEA050522
:1048600091F800C0BCF1000F31D0146800202BE09B
:104870004FF0010C0CFA00F3B1F800C00CEA03068B
:104880009E4220D183004FF00F0C0CFA03F7BC437B
:1048900005FA03FC4CEA040491F803C0BCF1280FAC
:1048A00006D14FF0010C0CFA00FCC2F814C00AE06B
:1048B00091F803C0BCF1480F05D14FF0010C0CFA80
:1048C00000FCC2F810C0401C0828D1D31460B1F815
:1048D00000C0BCF1FF0F34DD546800202EE000F171
:1048E000080C4FF0010808FA0CF3B1F800C00CEA0C
:1048F00003069E4221D183004FF00F0C0CFA03F700
:10490000BC4305FA03FC4CEA040491F803C0BCF173
:10491000280F05D100F1080C08FA0CF8C2F8148031
:1049200091F803C0BCF1480F07D100F1080C4FF01B
:10493000010808FA0CF8C2F81080401C0828CED3F1
:104940005460BDE8F0814FF6FF7101800221817053
:104950000421C17070470246002093680B400BB1E0
:10496000012000E0002070470146886880B270474F
:1049700002460020D3680B400BB1012000E000206C
:1049800070470146C86880B2704701617047416155
:1049900070470AB1016100E041617047C160704732
:1049A0004FF480320A438261816182618269826947
:1049B000704702460020434B18684FF6807318403A
:1049C00040EA021008433F4B186070473E49C861F7
:1049D0007047F0B50A46002300240021002500F0AE
:1049E0000046B6F1004F02D1364EF16901E0354E76
:1049F0007168C0F3034583B200F44016B6F5401F5A
:104A000008D121F070612F4E766826F070662D4F28
:104A10007E6012E000F48016B6F5801F06D10326F2
:104A200006FA05F4A14341F0706106E0460D360137
:104A300003FA06F6B14341F0706122B1460D36012A
:104A400003FA06F6314300F00046B6F1004F02D1FA
:104A50001C4EF16101E01B4E7160F0BD30B50022CB
:104A60008B071C0F0F2303FA04F2164B08338C102C
:104A700053F824309343134C08348D1044F82530F8
:104A800023468C1053F824308C07240F00FA04F4CA
:104A900023430C4C08348D1044F8253030BD0A49AE
:104AA000DC3108607047000000080140000C014044
:104AB000001001400014014000180140001C01409A
:104AC000002001400000014000002042DF48006853
:104AD00040F00100DD49086008464068DC490840B4
:104AE000DA49486008460068DA490840D749086052
:104AF0000846006820F4802008600846406820F4DA
:104B0000FE0048604FF41F0088607047CF49096875
:104B100021F48031CD4A11601146096821F48021C9
:104B20001160B0F5803F03D0B0F5802F0ED106E0C4
:104B3000C649096841F48031C44A116007E0C3499D
:104B4000096841F4A021C14A116000E000BF00BF24
:104B5000704710B501460022002300204A11012AA7
:104B600002D1BA4C236806E0022A02D1B74C236A6C
:104B700001E0B64C636A01F01F02012494401C401E
:104B80000CB1012000E0002010BD38B500200090DD
:104B90000024002500BF3120FFF7DBFF0546009809
:104BA000401C00900098B0F5A06F01D0002DF2D00D
:104BB0003120FFF7CEFF08B1012400E00024204699
:104BC00038BD01460020A14A106820F0F80040EAF4
:104BD000C10010607047A04908607047024600207D
:104BE0009A4B586820F47C1042EA01031843974B13
:104BF0005860704798490866704701460020934AFC
:104C0000506820F003000843506070478F484068A8
:104C100000F00C007047014600208C4A506820F0DC
:104C2000F00008435060704701460020874A5068F2
:104C300020F4E06008435060704701460020834A3A
:104C4000506820F4605040EAC1005060704729B1BC
:104C50007E4A527A02437D4B5A7204E07B4A527A72
:104C600082437A4B5A7270477B49D831086070474B
:104C700001460020754A506820F4404008435060C7
:104C800070470021714A20321170704A82F820105A
:104C9000012802D004280AD104E001216B4A203205
:104CA000117005E00521694A2032117000E000BF53
:104CB00000BF70476949086070476449096A014349
:104CC000624A11627047654944390860704730B5DF
:104CD00000210022002400235C4D6D6805F00C01CA
:104CE00021B1042905D0082923D105E05C4D0560D8
:104CF00022E05B4D05601FE0544D6D6805F47012B5
:104D0000524D6D6805F48034022505EB92421CB9C2
:104D1000544D554305600BE04C4D6D6805F400356E
:104D20001DB1504D5543056002E04D4D55430560A2
:104D300002E04B4D056000BF00BF444D6D6805F0BB
:104D4000F0010909484D6B5C0568DD4045603F4D49
:104D50006D6805F4E061090A434D6B5C4568DD4010
:104D600085603A4D6D6805F46051C90A3E4D6B5C33
:104D70004568DD40C560354D6D6805F44041890BDF
:104D80003A4D6B5CC568B5FBF3F5056130BD29B1E3
:104D90002E4A526902432D4B5A6104E02B4A526954
:104DA00082432A4B5A61704729B1284A92690243CB
:104DB000264B9A6104E0254A92698243234B9A610B
:104DC000704729B1214AD2690243204BDA6104E0DD
:104DD0001E4AD26982431D4BDA61704729B11B4AD2
:104DE000D2680243194BDA6004E0184AD268824361
:104DF000164BDA60704729B1144A12690243134B0B
:104E00001A6104E0114A12698243104B1A6170471B
:104E100012494039086070470F49C86470470B4910
:104E2000C87170470948406A40F08070074948627D
:104E3000704701460020054A92680A400AB10120E5
:104E400000E000207047014988727047001002405E
:104E50000000FFF8FFFFF6FE0000424280044242DD
:104E600000127A0000093D002500002035000020D6
:104E700010B50446FB48844209D101218803FFF79D
:104E8000ADFF00214FF48040FFF7A8FF32E0F64865
:104E9000844209D101214804FFF7ADFF00214FF4FE
:104EA0000030FFF7A8FF25E0F048844209D1012136
:104EB0008804FFF7A0FF00214FF48020FFF79BFF3D
:104EC00018E0EB48844209D10121C804FFF793FFA1
:104ED00000214FF40020FFF78EFF0BE0E5488442ED
:104EE00008D101210805FFF786FF00214FF480104B
:104EF000FFF781FF10BD2DE9F04786B005460E464D
:104F00000024A24600BFA1460027B08900B100BF1F
:104F10002F462C8A4CF6FF700440F08804432C8204
:104F2000AC894EF6F3100440B0883189084371898A
:104F300008430443AC81AC8A4FF6FF400440B0897B
:104F40000443AC8201A8FFF7C2FEC648874202D1E3
:104F5000DDF810A001E0DDF80CA0A88900F4004005
:104F600040B10AEBCA0000EB0A1031684900B0FBFF
:104F7000F1F807E00AEBCA0000EB0A10316889007B
:104F8000B0FBF1F86420B8FBF0F0040120096421C3
:104F900001FB1089A88900F4004040B1322000EBE9
:104FA000C900B0FBF1F000F00700044308E0322034
:104FB00000EB09106421B0FBF1F000F00F00044396
:104FC0002C8106B0BDE8F0874FF416510160002136
:104FD0008180C18001810C21418100218181704744
:104FE00010B502460020108A4FF2FF0318400B88CC
:104FF0004C8823438C882343CC8823431843108256
:1050000010BD0021018041808180C180704721B1A5
:10501000828942F40052828104E082894DF6FF7356
:105020001A4082817047F0B503460024002600250F
:10503000002040F66A17B94200D100BF1846C1F3FC
:10504000421401F01F06012707FA06F5012C01D1D1
:105050000C3004E0022C01D1103000E014301AB101
:1050600007682F43076002E00768AF430760F0BDA1
:105070001AB1838A0B43838202E0838A8B43838243
:105080007047028A4FF6F0731A400282028A0A437E
:105090000282704782894FF2FF731A4082818289AF
:1050A0000A438281704721B1828942F002028281E3
:1050B00004E082894FF6FD731A4082817047028AAC
:1050C0004FF6DF731A400282028A0A430282704757
:1050D00021B1028A42F48042028204E0028A4BF645
:1050E000FF731A4002827047C1F308028280704742
:1050F00001468888C0F308007047818941F00101AA
:1051000081817047028BD2B20283028B42EA012274
:1051100002837047028B02F47F420283028B0A43B0
:105120000283704721B1828A42F02002828204E029
:10513000828A4FF6DF731A408282704721B1828AD9
:1051400042F01002828204E0828A4FF6EF731A4026
:105150008282704721B1828A42F00802828204E092
:10516000828A4FF6F7731A408282704721B1828992
:1051700042F40042828103E08289C2F30E028281FE
:10518000704721B1828A42F40062828204E0828AFE
:105190004FF2FF731A4082827047828A4FF6FB7388
:1051A0001A408282828A0A438282704721B1828AAF
:1051B00042F00202828204E0828A4FF6FD731A40B6
:1051C0008282704702460020B1F5007F00D100BF07
:1051D00013880B400BB1012000E00020704701F460
:1051E0000072B2F5007F00D100BFCA430280704751
:1051F00070B50246002400230025002040F66A1600
:10520000B14200D100BFC1F3421501F01F030126D6
:1052100006FA03F3012D02D19689334006E0022DF0
:1052200002D1168A334001E0968A33400C120126DF
:1052300006FA04F41688344013B10CB1012000E0E2
:10524000002070BD10B50022002340F66A14A14270
:1052500000D100BF0A1201249440A3B2DC430480B1
:1052600010BD0000003801400044004000480040EC
:10527000004C00400050004010B50446FA488442FB
:1052800008D101214015FFF7A9FD00216015FFF7A6
:10529000A5FD17E0F548844208D101210015FFF76C
:1052A0009DFD00212015FFF799FD0BE0F048844299
:1052B00008D10121C803FFF791FD00214FF4004000
:1052C000FFF78CFD10BD30B502460020002350686A
:1052D000E84C20400D790C6844EA052420435060D6
:1052E0009068E54C2040D1E902542C434D7944EAC2
:1052F000450420439060D06A20F470000C7C641E4A
:10530000E4B2234340EA0350D06230BD0021016083
:10531000017141718160C16001210174704721B147
:10532000826842F00102826003E0826822F001029A
:105330008260704721B1826842F48072826003E02B
:10534000826822F480728260704710B50023CBB26D
:105350001AB144681C43446002E044689C434460C2
:1053600010BD816841F0080181607047014600204E
:105370008A6802F008020AB1012000E000207047AC
:10538000816841F0040181607047014600208A680D
:1053900002F004020AB1012000E00020704721B1B0
:1053A000826842F4A002826003E0826822F4A002D4
:1053B00082607047014600208A6802F480020AB1C8
:1053C000012000E00020704710B50A4600210023AC
:1053D000416821F46041531E41EA4331416010BDF0
:1053E00021B1426842F40062426003E0426822F464
:1053F000006242607047F0B504460D46002000216F
:10540000092D11DDE068A5F10A0606EB460707261F
:1054100006FA07F18843A5F10A0606EB460603FAE9
:1054200006F10843E0600CE0206905EB450707261C
:1054300006FA07F1884305EB450603FA06F108432F
:105440002061072A0FDA606B561E06EB86071F26BF
:1054500006FA07F18843561E06EB860605FA06F1A2
:105460000843606322E00D2A0FDA206BD61F06EB9B
:1054700086071F2606FA07F18843D61F06EB860625
:1054800005FA06F10843206310E0E06AA2F10D0678
:1054900006EB86071F2606FA07F18843A2F10D06E0
:1054A00006EB860605FA06F10843E062F0BD21B17D
:1054B000826842F48012826003E0826822F48012E3
:1054C000826070470146C86C80B2704766484C30B5
:1054D0000068704721B1426842F48062426003E094
:1054E000426822F480624260704721B1426842F40F
:1054F0008052426003E0426822F48052426070476A
:105500000A460021816821F4E0411143816070471F
:1055100021B1826842F40042826003E0826822F492
:1055200000428260704721B1826842F402128260B8
:1055300003E0826822F40212826070470146002074
:105540008A6802F400120AB1012000E000207047CE
:10555000F0B504461546002000220026092911DD79
:10556000E068A1F10A0707EB470C072707FA0CF2DE
:105570009043A1F10A0707EB470703FA07F210432C
:10558000E0600CE0206901EB410C072707FA0CF200
:10559000904301EB410703FA07F210432061A06B2F
:1055A000C0F30156EF1C06F1010CA7EB0C0707EB4B
:1055B000870C1F2707FA0CF29043EF1C06F1010C31
:1055C000A7EB0C0707EB870701FA07F21043A0636C
:1055D000F0BD10B50A4600210023816B21F4401173
:1055E000531E41EA0351816310BD08B500230093A7
:1055F0000090009B0B440093009B1A6008BD08B507
:10560000024600200090009201F12800009B1844FF
:1056100000900098006880B208BD0A4600214168E9
:10562000164B1940114341607047416282627047D6
:105630000A460021416821F01F0111434160704773
:1056400040B109490831096841F40001064A0832AD
:10565000116007E004490831096821F40001024A99
:10566000083211607047000000240140002801400A
:10567000003C0140FFFEF0FFFDF7F1FFFFFD3FFFA3
:105680000246002013680B400BB1012000E000200F
:105690007047CA430260704770B50246002000237D
:1056A00000240B125568CEB205EA060415681D40A9
:1056B00015B10CB1012000E0002070BD00220A12DB
:1056C000D3430360704700007CB5002514E06946B1
:1056D000284601F013FE064666B9F74850F8254003
:1056E00044B1012C06D0D4E9020100EB81006064D2
:1056F0000198A064681CC5B23F2DE8D97CBD002488
:1057000000BF02E0282001F003FFEC4800780028E9
:10571000F8D0EB4800686421B0FBF1F0E84908607C
:105720000846006828B90020E6490870FF2001F00B
:1057300027FE00BF01F0C4FF0446E3480068E349C8
:1057400008600020E0490860204601F0BDFFDF4806
:105750000068DB490968B0FBF1F0C0F16400D94989
:10576000087002F00CF8FFF7AFFF142001F0D0FE34
:10577000E0E700B587B0032000218022D44BCDE9BB
:105780000132CDE903104FF6FE703E23D14A00905E
:10579000AFF2950001F0CBFB06AACFA13E2001F0AD
:1057A0002FFD07B000BD002400BF00BF01F088FF3F
:1057B0000446C5480068401CC3490860204601F003
:1057C00083FF01F0DBFFF1E700B587B00320002184
:1057D0008022C54BCDE90132CDE903104FF6FF70B1
:1057E0003F23C24A0090AFF2410001F0A0FB06AA9D
:1057F000BFA13F2001F004FD07B000BD04E000227E
:1058000000F8012B4A1E91B20029F8D1704770B5FB
:10581000C821BB48FFF7F2FF00230FE0581C85B2F8
:1058200003EB8300B64901EB800405EB850001EB37
:105830008006002020706660581C83B2092BEDD3CF
:1058400003EB8300AE4901EB800400202070606010
:105850000846AC49086070BD70B54FF47C71AA4829
:10586000FFF7CCFF4FF480719348FFF7C7FF002488
:1058700013E0601CC5B2C4EBC40000EB4000A249B9
:1058800001EB8003C5EBC50000EB400001EB800697
:105890005E619EA0D864601CC4B20B2CE9D3C4EB3B
:1058A000C40000EB4000984901EB800300205861E0
:1058B00096A0D864002096490860934895490860EE
:1058C00070BD0021944A1170002004E00021934A29
:1058D0001154411CC8B20828F8D30021904A117015
:1058E000904A1170904A1160904A116070470020F0
:1058F0008F4908608F4908708F4908708F49087078
:105900008F4908708F4908606F4908606F490860C7
:105910006B49086069490870704710B501F02AFFAB
:10592000FFF7E5FFFFF7CDFFFFF796FFFFF76FFFEC
:1059300000F0EAFE01F0E1F9FFF746FFFFF719FF7B
:1059400001F019FF10BD7E480078012808D1794880
:105950000078FF2804D277480078401C7549087009
:10596000704779496C4A1278885C6C49095C764AC0
:10597000515C01EBC0016B4A1170704710B50024F7
:105980006F480078012830D101F09AFE044669483A
:10599000007820B167480078401E66490870654865
:1059A0000078F8B964480078E0B9FFF7DAFF4248B8
:1059B0005C49097850F821005B4908605948007833
:1059C0005749097888420DD057480068806B401CC1
:1059D0005549096888635B480068401C594908605C
:1059E00001F08DFE204601F06FFE10BD10B50024C1
:1059F00053480078012811D101F062FE04464D4859
:105A0000007840B94C480078FF2804D24A48007812
:105A1000401C49490870204601F056FE10BD10B5E3
:105A2000002401F04DFE044642480078F8B942488F
:105A30000078E0B9FFF795FF1F483A49097850F818
:105A4000210039490860374800783549097888428B
:105A50000DD035480068806B401C33490968886365
:105A600038480068401C3749086001F041FE204674
:105A700001F02AFE10BD10B500243148007801283D
:105A80006FD101F01DFE04462B48007880B12A48F2
:105A90000078401E284908700846007848B9254813
:105AA000007838B9204601F00FFEFFF7B8FF58E044
:105AB00054E04FE04AE00000401B0020540000206A
:105AC0004C0000204800002064000020500000200E
:105AD000401700203C19002075432F4F532D494992
